{
  "address": "0xC8d9A88ebAa934adF5635B6E66EE9FC0c836366B",
  "abi": [
    {
      "inputs": [
        {
          "internalType": "uint256",
          "name": "_lockTime",
          "type": "uint256"
        },
        {
          "internalType": "address",
          "name": "defaAddr",
          "type": "address"
        }
      ],
      "stateMutability": "nonpayable",
      "type": "constructor"
    },
    {
      "inputs": [
        {
          "internalType": "address",
          "name": "newOwner",
          "type": "address"
        }
      ],
      "name": "changeOwner",
      "outputs": [],
      "stateMutability": "nonpayable",
      "type": "function"
    },
    {
      "inputs": [],
      "name": "dataFeed",
      "outputs": [
        {
          "internalType": "contract AggregatorV3Interface",
          "name": "",
          "type": "address"
        }
      ],
      "stateMutability": "view",
      "type": "function"
    },
    {
      "inputs": [],
      "name": "fund",
      "outputs": [],
      "stateMutability": "payable",
      "type": "function"
    },
    {
      "inputs": [
        {
          "internalType": "address",
          "name": "",
          "type": "address"
        }
      ],
      "name": "fundersToMoney",
      "outputs": [
        {
          "internalType": "uint256",
          "name": "",
          "type": "uint256"
        }
      ],
      "stateMutability": "view",
      "type": "function"
    },
    {
      "inputs": [],
      "name": "getFund",
      "outputs": [],
      "stateMutability": "nonpayable",
      "type": "function"
    },
    {
      "inputs": [],
      "name": "getFundSuccess",
      "outputs": [
        {
          "internalType": "bool",
          "name": "",
          "type": "bool"
        }
      ],
      "stateMutability": "view",
      "type": "function"
    },
    {
      "inputs": [],
      "name": "owner",
      "outputs": [
        {
          "internalType": "address",
          "name": "",
          "type": "address"
        }
      ],
      "stateMutability": "view",
      "type": "function"
    },
    {
      "inputs": [],
      "name": "reFund",
      "outputs": [],
      "stateMutability": "nonpayable",
      "type": "function"
    },
    {
      "inputs": [
        {
          "internalType": "address",
          "name": "_erc20Addr",
          "type": "address"
        }
      ],
      "name": "setErc20Addr",
      "outputs": [],
      "stateMutability": "nonpayable",
      "type": "function"
    },
    {
      "inputs": [
        {
          "internalType": "address",
          "name": "addr",
          "type": "address"
        },
        {
          "internalType": "uint256",
          "name": "count",
          "type": "uint256"
        }
      ],
      "name": "setFundersToMoney",
      "outputs": [],
      "stateMutability": "nonpayable",
      "type": "function"
    },
    {
      "inputs": [],
      "name": "withdraw",
      "outputs": [],
      "stateMutability": "nonpayable",
      "type": "function"
    }
  ],
  "transactionHash": "0x57876986990b225d378fa77e65a940bc173668afd70e65c9756b30a70728cc40",
  "args": [
    1800,
    "0x694AA1769357215DE4FAC081bf1f309aDC325306"
  ],
  "numDeployments": 1,
  "solcInputHash": "b16c00b553fe94040ce33072ee334ebd",
  "bytecode": "0x60806040526000600560146101000a81548160ff02191690831515021790555034801561002b57600080fd5b50604051611634380380611634833981810160405281019061004d919061017c565b816004819055504260038190555033600260006101000a81548173ffffffffffffffffffffffffffffffffffffffff021916908373ffffffffffffffffffffffffffffffffffffffff160217905550806000806101000a81548173ffffffffffffffffffffffffffffffffffffffff021916908373ffffffffffffffffffffffffffffffffffffffff16021790555050506101bc565b600080fd5b6000819050919050565b6100fb816100e8565b811461010657600080fd5b50565b600081519050610118816100f2565b92915050565b600073ffffffffffffffffffffffffffffffffffffffff82169050919050565b60006101498261011e565b9050919050565b6101598161013e565b811461016457600080fd5b50565b60008151905061017681610150565b92915050565b60008060408385031215610193576101926100e3565b5b60006101a185828601610109565b92505060206101b285828601610167565b9150509250929050565b611469806101cb6000396000f3fe60806040526004361061009c5760003560e01c80639e42ff90116100645780639e42ff901461013a578063a6f9dae114610165578063b60d42881461018e578063d43b988114610198578063da4658e0146101c1578063de491e1c146101ec5761009c565b80630ff0a4df146100a157806313ffff01146100b85780633ccfd60b146100e15780638da5cb5b146100f85780638edd6eb614610123575b600080fd5b3480156100ad57600080fd5b506100b6610229565b005b3480156100c457600080fd5b506100df60048036038101906100da9190610cc8565b610483565b005b3480156100ed57600080fd5b506100f6610557565b005b34801561010457600080fd5b5061010d6106a1565b60405161011a9190610d04565b60405180910390f35b34801561012f57600080fd5b506101386106c7565b005b34801561014657600080fd5b5061014f6108b1565b60405161015c9190610d7e565b60405180910390f35b34801561017157600080fd5b5061018c60048036038101906101879190610cc8565b6108d5565b005b6101966109a9565b005b3480156101a457600080fd5b506101bf60048036038101906101ba9190610dcf565b610a93565b005b3480156101cd57600080fd5b506101d6610b6b565b6040516101e39190610e2a565b60405180910390f35b3480156101f857600080fd5b50610213600480360381019061020e9190610cc8565b610b7e565b6040516102209190610e54565b60405180910390f35b6004546003546102399190610e9e565b42101561027b576040517f08c379a000000000000000000000000000000000000000000000000000000000815260040161027290610f2f565b60405180910390fd5b683635c9adc5dea0000047106102c6576040517f08c379a00000000000000000000000000000000000000000000000000000000081526004016102bd90610f9b565b60405180910390fd5b6000600160003373ffffffffffffffffffffffffffffffffffffffff1673ffffffffffffffffffffffffffffffffffffffff1681526020019081526020016000205411610348576040517f08c379a000000000000000000000000000000000000000000000000000000000815260040161033f90611007565b60405180910390fd5b6000600160003373ffffffffffffffffffffffffffffffffffffffff1673ffffffffffffffffffffffffffffffffffffffff1681526020019081526020016000205490506000600160003373ffffffffffffffffffffffffffffffffffffffff1673ffffffffffffffffffffffffffffffffffffffff1681526020019081526020016000208190555060003373ffffffffffffffffffffffffffffffffffffffff16826040516103f790611058565b60006040518083038185875af1925050503d8060008114610434576040519150601f19603f3d011682016040523d82523d6000602084013e610439565b606091505b5050809150508061047f576040517f08c379a0000000000000000000000000000000000000000000000000000000008152600401610476906110b9565b60405180910390fd5b5050565b3373ffffffffffffffffffffffffffffffffffffffff16600260009054906101000a900473ffffffffffffffffffffffffffffffffffffffff1673ffffffffffffffffffffffffffffffffffffffff1614610513576040517f08c379a000000000000000000000000000000000000000000000000000000000815260040161050a90611125565b60405180910390fd5b80600560006101000a81548173ffffffffffffffffffffffffffffffffffffffff021916908373ffffffffffffffffffffffffffffffffffffffff16021790555050565b3373ffffffffffffffffffffffffffffffffffffffff16600260009054906101000a900473ffffffffffffffffffffffffffffffffffffffff1673ffffffffffffffffffffffffffffffffffffffff16146105e7576040517f08c379a00000000000000000000000000000000000000000000000000000000081526004016105de90611125565b60405180910390fd5b60004790506000811161062f576040517f08c379a000000000000000000000000000000000000000000000000000000000815260040161062690611191565b60405180910390fd5b60003373ffffffffffffffffffffffffffffffffffffffff168260405161065590611058565b60006040518083038185875af1925050503d8060008114610692576040519150601f19603f3d011682016040523d82523d6000602084013e610697565b606091505b5050809150505050565b600260009054906101000a900473ffffffffffffffffffffffffffffffffffffffff1681565b3373ffffffffffffffffffffffffffffffffffffffff16600260009054906101000a900473ffffffffffffffffffffffffffffffffffffffff1673ffffffffffffffffffffffffffffffffffffffff1614610757576040517f08c379a000000000000000000000000000000000000000000000000000000000815260040161074e90611125565b60405180910390fd5b6004546003546107679190610e9e565b4210156107a9576040517f08c379a00000000000000000000000000000000000000000000000000000000081526004016107a090610f2f565b60405180910390fd5b60006107b447610b96565b9050683635c9adc5dea00000811015610802576040517f08c379a00000000000000000000000000000000000000000000000000000000081526004016107f9906111fd565b60405180910390fd5b6000600260009054906101000a900473ffffffffffffffffffffffffffffffffffffffff1673ffffffffffffffffffffffffffffffffffffffff164760405161084a90611058565b60006040518083038185875af1925050503d8060008114610887576040519150601f19603f3d011682016040523d82523d6000602084013e61088c565b606091505b5050809150506001600560146101000a81548160ff0219169083151502179055505050565b60008054906101000a900473ffffffffffffffffffffffffffffffffffffffff1681565b3373ffffffffffffffffffffffffffffffffffffffff16600260009054906101000a900473ffffffffffffffffffffffffffffffffffffffff1673ffffffffffffffffffffffffffffffffffffffff1614610965576040517f08c379a000000000000000000000000000000000000000000000000000000000815260040161095c90611125565b60405180910390fd5b80600260006101000a81548173ffffffffffffffffffffffffffffffffffffffff021916908373ffffffffffffffffffffffffffffffffffffffff16021790555050565b670de0b6b3a76400006109bb34610b96565b10156109fc576040517f08c379a00000000000000000000000000000000000000000000000000000000081526004016109f390611007565b60405180910390fd5b600454600354610a0c9190610e9e565b4210610a4d576040517f08c379a0000000000000000000000000000000000000000000000000000000008152600401610a4490611269565b60405180910390fd5b34600160003373ffffffffffffffffffffffffffffffffffffffff1673ffffffffffffffffffffffffffffffffffffffff16815260200190815260200160002081905550565b600560009054906101000a900473ffffffffffffffffffffffffffffffffffffffff1673ffffffffffffffffffffffffffffffffffffffff163373ffffffffffffffffffffffffffffffffffffffff1614610b23576040517f08c379a0000000000000000000000000000000000000000000000000000000008152600401610b1a90611125565b60405180910390fd5b80600160008473ffffffffffffffffffffffffffffffffffffffff1673ffffffffffffffffffffffffffffffffffffffff168152602001908152602001600020819055505050565b600560149054906101000a900460ff1681565b60016020528060005260406000206000915090505481565b600080610ba1610bc6565b90506305f5e1008184610bb49190611289565b610bbe91906112fa565b915050919050565b60008060008054906101000a900473ffffffffffffffffffffffffffffffffffffffff1673ffffffffffffffffffffffffffffffffffffffff1663feaf968c6040518163ffffffff1660e01b815260040160a060405180830381865afa158015610c34573d6000803e3d6000fd5b505050506040513d601f19601f82011682018060405250810190610c5891906113b8565b5050509150508091505090565b600080fd5b600073ffffffffffffffffffffffffffffffffffffffff82169050919050565b6000610c9582610c6a565b9050919050565b610ca581610c8a565b8114610cb057600080fd5b50565b600081359050610cc281610c9c565b92915050565b600060208284031215610cde57610cdd610c65565b5b6000610cec84828501610cb3565b91505092915050565b610cfe81610c8a565b82525050565b6000602082019050610d196000830184610cf5565b92915050565b6000819050919050565b6000610d44610d3f610d3a84610c6a565b610d1f565b610c6a565b9050919050565b6000610d5682610d29565b9050919050565b6000610d6882610d4b565b9050919050565b610d7881610d5d565b82525050565b6000602082019050610d936000830184610d6f565b92915050565b6000819050919050565b610dac81610d99565b8114610db757600080fd5b50565b600081359050610dc981610da3565b92915050565b60008060408385031215610de657610de5610c65565b5b6000610df485828601610cb3565b9250506020610e0585828601610dba565b9150509250929050565b60008115159050919050565b610e2481610e0f565b82525050565b6000602082019050610e3f6000830184610e1b565b92915050565b610e4e81610d99565b82525050565b6000602082019050610e696000830184610e45565b92915050565b7f4e487b7100000000000000000000000000000000000000000000000000000000600052601160045260246000fd5b6000610ea982610d99565b9150610eb483610d99565b9250828201905080821115610ecc57610ecb610e6f565b5b92915050565b600082825260208201905092915050565b7f77696e646f772069732074696d6520636c6f7365000000000000000000000000600082015250565b6000610f19601483610ed2565b9150610f2482610ee3565b602082019050919050565b60006020820190508181036000830152610f4881610f0c565b9050919050565b7f6e6f2073617469736679206d6f6e657900000000000000000000000000000000600082015250565b6000610f85601083610ed2565b9150610f9082610f4f565b602082019050919050565b60006020820190508181036000830152610fb481610f78565b9050919050565b7f6e6f206d6f6e6579000000000000000000000000000000000000000000000000600082015250565b6000610ff1600883610ed2565b9150610ffc82610fbb565b602082019050919050565b6000602082019050818103600083015261102081610fe4565b9050919050565b600081905092915050565b50565b6000611042600083611027565b915061104d82611032565b600082019050919050565b600061106382611035565b9150819050919050565b7f7472616e73666572207478206572726f72000000000000000000000000000000600082015250565b60006110a3601183610ed2565b91506110ae8261106d565b602082019050919050565b600060208201905081810360008301526110d281611096565b9050919050565b7f6e6f206f776e6572000000000000000000000000000000000000000000000000600082015250565b600061110f600883610ed2565b915061111a826110d9565b602082019050919050565b6000602082019050818103600083015261113e81611102565b9050919050565b7f6461797520300000000000000000000000000000000000000000000000000000600082015250565b600061117b600683610ed2565b915061118682611145565b602082019050919050565b600060208201905081810360008301526111aa8161116e565b9050919050565b7f6e6f203130303024000000000000000000000000000000000000000000000000600082015250565b60006111e7600883610ed2565b91506111f2826111b1565b602082019050919050565b60006020820190508181036000830152611216816111da565b9050919050565b7f77696e646f7720697320636c6f73650000000000000000000000000000000000600082015250565b6000611253600f83610ed2565b915061125e8261121d565b602082019050919050565b6000602082019050818103600083015261128281611246565b9050919050565b600061129482610d99565b915061129f83610d99565b92508282026112ad81610d99565b915082820484148315176112c4576112c3610e6f565b5b5092915050565b7f4e487b7100000000000000000000000000000000000000000000000000000000600052601260045260246000fd5b600061130582610d99565b915061131083610d99565b9250826113205761131f6112cb565b5b828204905092915050565b600069ffffffffffffffffffff82169050919050565b61134a8161132b565b811461135557600080fd5b50565b60008151905061136781611341565b92915050565b6000819050919050565b6113808161136d565b811461138b57600080fd5b50565b60008151905061139d81611377565b92915050565b6000815190506113b281610da3565b92915050565b600080600080600060a086880312156113d4576113d3610c65565b5b60006113e288828901611358565b95505060206113f38882890161138e565b9450506040611404888289016113a3565b9350506060611415888289016113a3565b925050608061142688828901611358565b915050929550929590935056fea26469706673582212206ccf0dff8b15763fe4dc3ec14ee6c5d7609418f999c031e0d1eb5809662806ed64736f6c634300081c0033",
  "devdoc": {
    "kind": "dev",
    "methods": {},
    "version": 1
  },
  "userdoc": {
    "kind": "user",
    "methods": {},
    "version": 1
  },
  "storageLayout": {
    "storage": [
      {
        "astId": 318,
        "contract": "contracts/FundMe.sol:FundMe",
        "label": "dataFeed",
        "offset": 0,
        "slot": "0",
        "type": "t_contract(AggregatorV3Interface)104"
      },
      {
        "astId": 364,
        "contract": "contracts/FundMe.sol:FundMe",
        "label": "fundersToMoney",
        "offset": 0,
        "slot": "1",
        "type": "t_mapping(t_address,t_uint256)"
      },
      {
        "astId": 366,
        "contract": "contracts/FundMe.sol:FundMe",
        "label": "owner",
        "offset": 0,
        "slot": "2",
        "type": "t_address"
      },
      {
        "astId": 368,
        "contract": "contracts/FundMe.sol:FundMe",
        "label": "deployTime",
        "offset": 0,
        "slot": "3",
        "type": "t_uint256"
      },
      {
        "astId": 370,
        "contract": "contracts/FundMe.sol:FundMe",
        "label": "lockTime",
        "offset": 0,
        "slot": "4",
        "type": "t_uint256"
      },
      {
        "astId": 372,
        "contract": "contracts/FundMe.sol:FundMe",
        "label": "erc20Addr",
        "offset": 0,
        "slot": "5",
        "type": "t_address"
      },
      {
        "astId": 375,
        "contract": "contracts/FundMe.sol:FundMe",
        "label": "getFundSuccess",
        "offset": 20,
        "slot": "5",
        "type": "t_bool"
      }
    ],
    "types": {
      "t_address": {
        "encoding": "inplace",
        "label": "address",
        "numberOfBytes": "20"
      },
      "t_bool": {
        "encoding": "inplace",
        "label": "bool",
        "numberOfBytes": "1"
      },
      "t_contract(AggregatorV3Interface)104": {
        "encoding": "inplace",
        "label": "contract AggregatorV3Interface",
        "numberOfBytes": "20"
      },
      "t_mapping(t_address,t_uint256)": {
        "encoding": "mapping",
        "key": "t_address",
        "label": "mapping(address => uint256)",
        "numberOfBytes": "32",
        "value": "t_uint256"
      },
      "t_uint256": {
        "encoding": "inplace",
        "label": "uint256",
        "numberOfBytes": "32"
      }
    }
  }
}